:020000040000FA
:0400000003EF00F01A
:020004000000FA
:0A00060094829484000E956E82B27D
:1000100011EC00F082B421EC00F0000E836E07EFCB
:1000200000F031EC00F031EC00F031EC00F031EC9C
:1000300000F031EC00F082A2120082B41200002A1B
:10004000120031EC00F031EC00F031EC00F031EC5A
:1000500000F031EC00F082A4120082B2120000061F
:100060001200C80E016E40EC00F040EC00F040ECD5
:1000700000F040EC00F040EC00F0012EF4D712004C
:100080002E0E026E0000022EFDD782B2120082B444
:0C009000120006000600060007EF00F05A
:020000040030CA
:0100010000FE
:010003001EDE
:010006008178
:00000001FF
